{
  "_format": "hh-sol-artifact-1",
  "contractName": "SayHi",
  "sourceName": "contracts/SayHi.sol",
  "abi": [
    {
      "inputs": [],
      "stateMutability": "payable",
      "type": "constructor"
    },
    {
      "anonymous": false,
      "inputs": [
        {
          "indexed": true,
          "internalType": "address",
          "name": "from",
          "type": "address"
        },
        {
          "indexed": false,
          "internalType": "uint256",
          "name": "timestamp",
          "type": "uint256"
        },
        {
          "indexed": false,
          "internalType": "string",
          "name": "message",
          "type": "string"
        }
      ],
      "name": "NewMessage",
      "type": "event"
    },
    {
      "anonymous": false,
      "inputs": [
        {
          "indexed": true,
          "internalType": "address",
          "name": "winner",
          "type": "address"
        },
        {
          "indexed": false,
          "internalType": "uint256",
          "name": "timestamp",
          "type": "uint256"
        },
        {
          "indexed": false,
          "internalType": "uint256",
          "name": "amount",
          "type": "uint256"
        }
      ],
      "name": "NewPrize",
      "type": "event"
    },
    {
      "inputs": [],
      "name": "getAllMessages",
      "outputs": [
        {
          "components": [
            {
              "internalType": "address",
              "name": "from",
              "type": "address"
            },
            {
              "internalType": "uint256",
              "name": "timestamp",
              "type": "uint256"
            },
            {
              "internalType": "string",
              "name": "message",
              "type": "string"
            }
          ],
          "internalType": "struct SayHi.Message[]",
          "name": "",
          "type": "tuple[]"
        }
      ],
      "stateMutability": "view",
      "type": "function"
    },
    {
      "inputs": [],
      "name": "getTotalMessages",
      "outputs": [
        {
          "internalType": "uint256",
          "name": "",
          "type": "uint256"
        }
      ],
      "stateMutability": "view",
      "type": "function"
    },
    {
      "inputs": [
        {
          "internalType": "address",
          "name": "",
          "type": "address"
        }
      ],
      "name": "lastMessage",
      "outputs": [
        {
          "internalType": "uint256",
          "name": "",
          "type": "uint256"
        }
      ],
      "stateMutability": "view",
      "type": "function"
    },
    {
      "inputs": [
        {
          "internalType": "string",
          "name": "_message",
          "type": "string"
        }
      ],
      "name": "sendMessage",
      "outputs": [],
      "stateMutability": "nonpayable",
      "type": "function"
    },
    {
      "stateMutability": "payable",
      "type": "receive"
    }
  ],
  "bytecode": "0x60806040526064424462000014919062000065565b620000209190620000cf565b60018190555062000107565b6000819050919050565b7f4e487b7100000000000000000000000000000000000000000000000000000000600052601160045260246000fd5b600062000072826200002c565b91506200007f836200002c565b92508282019050808211156200009a576200009962000036565b5b92915050565b7f4e487b7100000000000000000000000000000000000000000000000000000000600052601260045260246000fd5b6000620000dc826200002c565b9150620000e9836200002c565b925082620000fc57620000fb620000a0565b5b828206905092915050565b61108680620001176000396000f3fe6080604052600436106100435760003560e01c8063147e91081461004f578063469c81101461007a57806353f5e380146100a3578063b18dfd3d146100ce5761004a565b3661004a57005b600080fd5b34801561005b57600080fd5b5061006461010b565b604051610071919061061c565b60405180910390f35b34801561008657600080fd5b506100a1600480360381019061009c9190610791565b610114565b005b3480156100af57600080fd5b506100b861049a565b6040516100c591906109bb565b60405180910390f35b3480156100da57600080fd5b506100f560048036038101906100f09190610a09565b6105eb565b604051610102919061061c565b60405180910390f35b60008054905090565b601e600360003373ffffffffffffffffffffffffffffffffffffffff1673ffffffffffffffffffffffffffffffffffffffff168152602001908152602001600020546101609190610a65565b42116101a1576040517f08c379a000000000000000000000000000000000000000000000000000000000815260040161019890610af6565b60405180910390fd5b42600360003373ffffffffffffffffffffffffffffffffffffffff1673ffffffffffffffffffffffffffffffffffffffff1681526020019081526020016000208190555060016000808282546101f79190610a65565b92505081905550600260405180606001604052803373ffffffffffffffffffffffffffffffffffffffff16815260200142815260200183815250908060018154018082558091505060019003906000526020600020906003020160009091909190915060008201518160000160006101000a81548173ffffffffffffffffffffffffffffffffffffffff021916908373ffffffffffffffffffffffffffffffffffffffff1602179055506020820151816001015560408201518160020190816102c09190610d22565b505050606460015442446102d49190610a65565b6102de9190610a65565b6102e89190610e23565b60018190555060506001541015610447576000662386f26fc10000905047811115610348576040517f08c379a000000000000000000000000000000000000000000000000000000000815260040161033f90610ec6565b60405180910390fd5b60003373ffffffffffffffffffffffffffffffffffffffff168260405161036e90610f17565b60006040518083038185875af1925050503d80600081146103ab576040519150601f19603f3d011682016040523d82523d6000602084013e6103b0565b606091505b50509050806103f4576040517f08c379a00000000000000000000000000000000000000000000000000000000081526004016103eb90610f9e565b60405180910390fd5b3373ffffffffffffffffffffffffffffffffffffffff167f2542ae4d36664839a4fdc8ff1191541d4b7c32098c163f3bed98ac4bdc9cbb7d428460405161043c929190610fbe565b60405180910390a250505b3373ffffffffffffffffffffffffffffffffffffffff167f0ff94fec3112de81726d79117e091c7c9d47da8a38c73e8cec7ee350a61898a6428360405161048f929190611020565b60405180910390a250565b60606002805480602002602001604051908101604052809291908181526020016000905b828210156105e257838290600052602060002090600302016040518060600160405290816000820160009054906101000a900473ffffffffffffffffffffffffffffffffffffffff1673ffffffffffffffffffffffffffffffffffffffff1673ffffffffffffffffffffffffffffffffffffffff1681526020016001820154815260200160028201805461055190610b45565b80601f016020809104026020016040519081016040528092919081815260200182805461057d90610b45565b80156105ca5780601f1061059f576101008083540402835291602001916105ca565b820191906000526020600020905b8154815290600101906020018083116105ad57829003601f168201915b505050505081525050815260200190600101906104be565b50505050905090565b60036020528060005260406000206000915090505481565b6000819050919050565b61061681610603565b82525050565b6000602082019050610631600083018461060d565b92915050565b6000604051905090565b600080fd5b600080fd5b600080fd5b600080fd5b6000601f19601f8301169050919050565b7f4e487b7100000000000000000000000000000000000000000000000000000000600052604160045260246000fd5b61069e82610655565b810181811067ffffffffffffffff821117156106bd576106bc610666565b5b80604052505050565b60006106d0610637565b90506106dc8282610695565b919050565b600067ffffffffffffffff8211156106fc576106fb610666565b5b61070582610655565b9050602081019050919050565b82818337600083830152505050565b600061073461072f846106e1565b6106c6565b9050828152602081018484840111156107505761074f610650565b5b61075b848285610712565b509392505050565b600082601f8301126107785761077761064b565b5b8135610788848260208601610721565b91505092915050565b6000602082840312156107a7576107a6610641565b5b600082013567ffffffffffffffff8111156107c5576107c4610646565b5b6107d184828501610763565b91505092915050565b600081519050919050565b600082825260208201905092915050565b6000819050602082019050919050565b600073ffffffffffffffffffffffffffffffffffffffff82169050919050565b600061083182610806565b9050919050565b61084181610826565b82525050565b61085081610603565b82525050565b600081519050919050565b600082825260208201905092915050565b60005b83811015610890578082015181840152602081019050610875565b60008484015250505050565b60006108a782610856565b6108b18185610861565b93506108c1818560208601610872565b6108ca81610655565b840191505092915050565b60006060830160008301516108ed6000860182610838565b5060208301516109006020860182610847565b5060408301518482036040860152610918828261089c565b9150508091505092915050565b600061093183836108d5565b905092915050565b6000602082019050919050565b6000610951826107da565b61095b81856107e5565b93508360208202850161096d856107f6565b8060005b858110156109a9578484038952815161098a8582610925565b945061099583610939565b925060208a01995050600181019050610971565b50829750879550505050505092915050565b600060208201905081810360008301526109d58184610946565b905092915050565b6109e681610826565b81146109f157600080fd5b50565b600081359050610a03816109dd565b92915050565b600060208284031215610a1f57610a1e610641565b5b6000610a2d848285016109f4565b91505092915050565b7f4e487b7100000000000000000000000000000000000000000000000000000000600052601160045260246000fd5b6000610a7082610603565b9150610a7b83610603565b9250828201905080821115610a9357610a92610a36565b5b92915050565b600082825260208201905092915050565b7f57616974203135207365636f6e64730000000000000000000000000000000000600082015250565b6000610ae0600f83610a99565b9150610aeb82610aaa565b602082019050919050565b60006020820190508181036000830152610b0f81610ad3565b9050919050565b7f4e487b7100000000000000000000000000000000000000000000000000000000600052602260045260246000fd5b60006002820490506001821680610b5d57607f821691505b602082108103610b7057610b6f610b16565b5b50919050565b60008190508160005260206000209050919050565b60006020601f8301049050919050565b600082821b905092915050565b600060088302610bd87fffffffffffffffffffffffffffffffffffffffffffffffffffffffffffffffff82610b9b565b610be28683610b9b565b95508019841693508086168417925050509392505050565b6000819050919050565b6000610c1f610c1a610c1584610603565b610bfa565b610603565b9050919050565b6000819050919050565b610c3983610c04565b610c4d610c4582610c26565b848454610ba8565b825550505050565b600090565b610c62610c55565b610c6d818484610c30565b505050565b5b81811015610c9157610c86600082610c5a565b600181019050610c73565b5050565b601f821115610cd657610ca781610b76565b610cb084610b8b565b81016020851015610cbf578190505b610cd3610ccb85610b8b565b830182610c72565b50505b505050565b600082821c905092915050565b6000610cf960001984600802610cdb565b1980831691505092915050565b6000610d128383610ce8565b9150826002028217905092915050565b610d2b82610856565b67ffffffffffffffff811115610d4457610d43610666565b5b610d4e8254610b45565b610d59828285610c95565b600060209050601f831160018114610d8c5760008415610d7a578287015190505b610d848582610d06565b865550610dec565b601f198416610d9a86610b76565b60005b82811015610dc257848901518255600182019150602085019450602081019050610d9d565b86831015610ddf5784890151610ddb601f891682610ce8565b8355505b6001600288020188555050505b505050505050565b7f4e487b7100000000000000000000000000000000000000000000000000000000600052601260045260246000fd5b6000610e2e82610603565b9150610e3983610603565b925082610e4957610e48610df4565b5b828206905092915050565b7f547279696e6720746f207769746864726177206d6f7265206d6f6e657920746860008201527f616e2074686520636f6e7472616374206861732e000000000000000000000000602082015250565b6000610eb0603483610a99565b9150610ebb82610e54565b604082019050919050565b60006020820190508181036000830152610edf81610ea3565b9050919050565b600081905092915050565b50565b6000610f01600083610ee6565b9150610f0c82610ef1565b600082019050919050565b6000610f2282610ef4565b9150819050919050565b7f4661696c656420746f207769746864726177206d6f6e65792066726f6d20636f60008201527f6e74726163742e00000000000000000000000000000000000000000000000000602082015250565b6000610f88602783610a99565b9150610f9382610f2c565b604082019050919050565b60006020820190508181036000830152610fb781610f7b565b9050919050565b6000604082019050610fd3600083018561060d565b610fe0602083018461060d565b9392505050565b6000610ff282610856565b610ffc8185610a99565b935061100c818560208601610872565b61101581610655565b840191505092915050565b6000604082019050611035600083018561060d565b81810360208301526110478184610fe7565b9050939250505056fea26469706673582212204c06759b2271acb841a7dcc85452c073d5ea82825ae4c06bece02d42edb0cc9b64736f6c63430008110033",
  "linkReferences": {},
  "deployedLinkReferences": {}
}